{
  "contractName": "RadioNFT",
  "abi": [
    {
      "inputs": [],
      "stateMutability": "nonpayable",
      "type": "constructor"
    },
    {
      "anonymous": false,
      "inputs": [
        {
          "indexed": true,
          "internalType": "address",
          "name": "owner",
          "type": "address"
        },
        {
          "indexed": true,
          "internalType": "address",
          "name": "approved",
          "type": "address"
        },
        {
          "indexed": true,
          "internalType": "uint256",
          "name": "tokenId",
          "type": "uint256"
        }
      ],
      "name": "Approval",
      "type": "event"
    },
    {
      "anonymous": false,
      "inputs": [
        {
          "indexed": true,
          "internalType": "address",
          "name": "owner",
          "type": "address"
        },
        {
          "indexed": true,
          "internalType": "address",
          "name": "operator",
          "type": "address"
        },
        {
          "indexed": false,
          "internalType": "bool",
          "name": "approved",
          "type": "bool"
        }
      ],
      "name": "ApprovalForAll",
      "type": "event"
    },
    {
      "anonymous": false,
      "inputs": [
        {
          "indexed": true,
          "internalType": "address",
          "name": "from",
          "type": "address"
        },
        {
          "indexed": true,
          "internalType": "address",
          "name": "to",
          "type": "address"
        },
        {
          "indexed": true,
          "internalType": "uint256",
          "name": "tokenId",
          "type": "uint256"
        }
      ],
      "name": "Transfer",
      "type": "event"
    },
    {
      "inputs": [
        {
          "internalType": "address",
          "name": "to",
          "type": "address"
        },
        {
          "internalType": "uint256",
          "name": "tokenId",
          "type": "uint256"
        }
      ],
      "name": "approve",
      "outputs": [],
      "stateMutability": "nonpayable",
      "type": "function"
    },
    {
      "inputs": [
        {
          "internalType": "address",
          "name": "owner",
          "type": "address"
        }
      ],
      "name": "balanceOf",
      "outputs": [
        {
          "internalType": "uint256",
          "name": "",
          "type": "uint256"
        }
      ],
      "stateMutability": "view",
      "type": "function",
      "constant": true
    },
    {
      "inputs": [
        {
          "internalType": "uint256",
          "name": "tokenId",
          "type": "uint256"
        }
      ],
      "name": "getApproved",
      "outputs": [
        {
          "internalType": "address",
          "name": "",
          "type": "address"
        }
      ],
      "stateMutability": "view",
      "type": "function",
      "constant": true
    },
    {
      "inputs": [
        {
          "internalType": "address",
          "name": "owner",
          "type": "address"
        },
        {
          "internalType": "address",
          "name": "operator",
          "type": "address"
        }
      ],
      "name": "isApprovedForAll",
      "outputs": [
        {
          "internalType": "bool",
          "name": "",
          "type": "bool"
        }
      ],
      "stateMutability": "view",
      "type": "function",
      "constant": true
    },
    {
      "inputs": [],
      "name": "name",
      "outputs": [
        {
          "internalType": "string",
          "name": "",
          "type": "string"
        }
      ],
      "stateMutability": "view",
      "type": "function",
      "constant": true
    },
    {
      "inputs": [
        {
          "internalType": "uint256",
          "name": "tokenId",
          "type": "uint256"
        }
      ],
      "name": "ownerOf",
      "outputs": [
        {
          "internalType": "address",
          "name": "",
          "type": "address"
        }
      ],
      "stateMutability": "view",
      "type": "function",
      "constant": true
    },
    {
      "inputs": [
        {
          "internalType": "address",
          "name": "from",
          "type": "address"
        },
        {
          "internalType": "address",
          "name": "to",
          "type": "address"
        },
        {
          "internalType": "uint256",
          "name": "tokenId",
          "type": "uint256"
        }
      ],
      "name": "safeTransferFrom",
      "outputs": [],
      "stateMutability": "nonpayable",
      "type": "function"
    },
    {
      "inputs": [
        {
          "internalType": "address",
          "name": "from",
          "type": "address"
        },
        {
          "internalType": "address",
          "name": "to",
          "type": "address"
        },
        {
          "internalType": "uint256",
          "name": "tokenId",
          "type": "uint256"
        },
        {
          "internalType": "bytes",
          "name": "_data",
          "type": "bytes"
        }
      ],
      "name": "safeTransferFrom",
      "outputs": [],
      "stateMutability": "nonpayable",
      "type": "function"
    },
    {
      "inputs": [
        {
          "internalType": "address",
          "name": "operator",
          "type": "address"
        },
        {
          "internalType": "bool",
          "name": "approved",
          "type": "bool"
        }
      ],
      "name": "setApprovalForAll",
      "outputs": [],
      "stateMutability": "nonpayable",
      "type": "function"
    },
    {
      "inputs": [
        {
          "internalType": "bytes4",
          "name": "interfaceId",
          "type": "bytes4"
        }
      ],
      "name": "supportsInterface",
      "outputs": [
        {
          "internalType": "bool",
          "name": "",
          "type": "bool"
        }
      ],
      "stateMutability": "view",
      "type": "function",
      "constant": true
    },
    {
      "inputs": [],
      "name": "symbol",
      "outputs": [
        {
          "internalType": "string",
          "name": "",
          "type": "string"
        }
      ],
      "stateMutability": "view",
      "type": "function",
      "constant": true
    },
    {
      "inputs": [
        {
          "internalType": "uint256",
          "name": "tokenId",
          "type": "uint256"
        }
      ],
      "name": "tokenURI",
      "outputs": [
        {
          "internalType": "string",
          "name": "",
          "type": "string"
        }
      ],
      "stateMutability": "view",
      "type": "function",
      "constant": true
    },
    {
      "inputs": [
        {
          "internalType": "address",
          "name": "from",
          "type": "address"
        },
        {
          "internalType": "address",
          "name": "to",
          "type": "address"
        },
        {
          "internalType": "uint256",
          "name": "tokenId",
          "type": "uint256"
        }
      ],
      "name": "transferFrom",
      "outputs": [],
      "stateMutability": "nonpayable",
      "type": "function"
    },
    {
      "inputs": [
        {
          "internalType": "uint256",
          "name": "tokenId",
          "type": "uint256"
        }
      ],
      "name": "CID",
      "outputs": [
        {
          "internalType": "string",
          "name": "",
          "type": "string"
        }
      ],
      "stateMutability": "view",
      "type": "function",
      "constant": true
    },
    {
      "inputs": [
        {
          "internalType": "string",
          "name": "_CID",
          "type": "string"
        }
      ],
      "name": "mint",
      "outputs": [],
      "stateMutability": "nonpayable",
      "type": "function"
    }
  ],
  "bytecode": "0x608060405260006007553480156200001657600080fd5b506040518060400160405280600681526020017f5261644e465400000000000000000000000000000000000000000000000000008152506040518060400160405280600381526020017f4e4654000000000000000000000000000000000000000000000000000000000081525081600090805190602001906200009b929190620000bd565b508060019080519060200190620000b4929190620000bd565b505050620001d2565b828054620000cb906200019c565b90600052602060002090601f016020900481019282620000ef57600085556200013b565b82601f106200010a57805160ff19168380011785556200013b565b828001600101855582156200013b579182015b828111156200013a5782518255916020019190600101906200011d565b5b5090506200014a91906200014e565b5090565b5b80821115620001695760008160009055506001016200014f565b5090565b7f4e487b7100000000000000000000000000000000000000000000000000000000600052602260045260246000fd5b60006002820490506001821680620001b557607f821691505b60208210811415620001cc57620001cb6200016d565b5b50919050565b612b9b80620001e26000396000f3fe608060405234801561001057600080fd5b50600436106100f55760003560e01c80636352211e11610097578063b88d4fde11610066578063b88d4fde14610296578063c87b56dd146102b2578063d85d3d27146102e2578063e985e9c5146102fe576100f5565b80636352211e146101fc57806370a082311461022c57806395d89b411461025c578063a22cb4651461027a576100f5565b8063095ea7b3116100d3578063095ea7b31461017857806323b872dd1461019457806326991d26146101b057806342842e0e146101e0576100f5565b806301ffc9a7146100fa57806306fdde031461012a578063081812fc14610148575b600080fd5b610114600480360381019061010f9190611910565b61032e565b6040516101219190611958565b60405180910390f35b610132610410565b60405161013f9190611a0c565b60405180910390f35b610162600480360381019061015d9190611a64565b6104a2565b60405161016f9190611ad2565b60405180910390f35b610192600480360381019061018d9190611b19565b610527565b005b6101ae60048036038101906101a99190611b59565b61063f565b005b6101ca60048036038101906101c59190611a64565b61069f565b6040516101d79190611a0c565b60405180910390f35b6101fa60048036038101906101f59190611b59565b610792565b005b61021660048036038101906102119190611a64565b6107b2565b6040516102239190611ad2565b60405180910390f35b61024660048036038101906102419190611bac565b610864565b6040516102539190611be8565b60405180910390f35b61026461091c565b6040516102719190611a0c565b60405180910390f35b610294600480360381019061028f9190611c2f565b6109ae565b005b6102b060048036038101906102ab9190611da4565b6109c4565b005b6102cc60048036038101906102c79190611a64565b610a26565b6040516102d99190611a0c565b60405180910390f35b6102fc60048036038101906102f79190611ec8565b610acd565b005b61031860048036038101906103139190611f11565b610b00565b6040516103259190611958565b60405180910390f35b60007f80ac58cd000000000000000000000000000000000000000000000000000000007bffffffffffffffffffffffffffffffffffffffffffffffffffffffff1916827bffffffffffffffffffffffffffffffffffffffffffffffffffffffff191614806103f957507f5b5e139f000000000000000000000000000000000000000000000000000000007bffffffffffffffffffffffffffffffffffffffffffffffffffffffff1916827bffffffffffffffffffffffffffffffffffffffffffffffffffffffff1916145b80610409575061040882610b94565b5b9050919050565b60606000805461041f90611f80565b80601f016020809104026020016040519081016040528092919081815260200182805461044b90611f80565b80156104985780601f1061046d57610100808354040283529160200191610498565b820191906000526020600020905b81548152906001019060200180831161047b57829003601f168201915b5050505050905090565b60006104ad82610bfe565b6104ec576040517f08c379a00000000000000000000000000000000000000000000000000000000081526004016104e390612024565b60405180910390fd5b6004600083815260200190815260200160002060009054906101000a900473ffffffffffffffffffffffffffffffffffffffff169050919050565b6000610532826107b2565b90508073ffffffffffffffffffffffffffffffffffffffff168373ffffffffffffffffffffffffffffffffffffffff1614156105a3576040517f08c379a000000000000000000000000000000000000000000000000000000000815260040161059a906120b6565b60405180910390fd5b8073ffffffffffffffffffffffffffffffffffffffff166105c2610c6a565b73ffffffffffffffffffffffffffffffffffffffff1614806105f157506105f0816105eb610c6a565b610b00565b5b610630576040517f08c379a000000000000000000000000000000000000000000000000000000000815260040161062790612148565b60405180910390fd5b61063a8383610c72565b505050565b61065061064a610c6a565b82610d2b565b61068f576040517f08c379a0000000000000000000000000000000000000000000000000000000008152600401610686906121da565b60405180910390fd5b61069a838383610e09565b505050565b60606106aa82610bfe565b6106e9576040517f08c379a00000000000000000000000000000000000000000000000000000000081526004016106e09061226c565b60405180910390fd5b600060066000848152602001908152602001600020805461070990611f80565b80601f016020809104026020016040519081016040528092919081815260200182805461073590611f80565b80156107825780601f1061075757610100808354040283529160200191610782565b820191906000526020600020905b81548152906001019060200180831161076557829003601f168201915b5050505050905080915050919050565b6107ad838383604051806020016040528060008152506109c4565b505050565b6000806002600084815260200190815260200160002060009054906101000a900473ffffffffffffffffffffffffffffffffffffffff169050600073ffffffffffffffffffffffffffffffffffffffff168173ffffffffffffffffffffffffffffffffffffffff16141561085b576040517f08c379a0000000000000000000000000000000000000000000000000000000008152600401610852906122fe565b60405180910390fd5b80915050919050565b60008073ffffffffffffffffffffffffffffffffffffffff168273ffffffffffffffffffffffffffffffffffffffff1614156108d5576040517f08c379a00000000000000000000000000000000000000000000000000000000081526004016108cc90612390565b60405180910390fd5b600360008373ffffffffffffffffffffffffffffffffffffffff1673ffffffffffffffffffffffffffffffffffffffff168152602001908152602001600020549050919050565b60606001805461092b90611f80565b80601f016020809104026020016040519081016040528092919081815260200182805461095790611f80565b80156109a45780601f10610979576101008083540402835291602001916109a4565b820191906000526020600020905b81548152906001019060200180831161098757829003601f168201915b5050505050905090565b6109c06109b9610c6a565b8383611065565b5050565b6109d56109cf610c6a565b83610d2b565b610a14576040517f08c379a0000000000000000000000000000000000000000000000000000000008152600401610a0b906121da565b60405180910390fd5b610a20848484846111d2565b50505050565b6060610a3182610bfe565b610a70576040517f08c379a0000000000000000000000000000000000000000000000000000000008152600401610a6790612422565b60405180910390fd5b6000610a7a61122e565b90506000815111610a9a5760405180602001604052806000815250610ac5565b80610aa484611245565b604051602001610ab592919061247e565b6040516020818303038152906040525b915050919050565b610ad9336007546113a6565b610ae5600754826113c4565b60076000815480929190610af8906124d1565b919050555050565b6000600560008473ffffffffffffffffffffffffffffffffffffffff1673ffffffffffffffffffffffffffffffffffffffff16815260200190815260200160002060008373ffffffffffffffffffffffffffffffffffffffff1673ffffffffffffffffffffffffffffffffffffffff16815260200190815260200160002060009054906101000a900460ff16905092915050565b60007f01ffc9a7000000000000000000000000000000000000000000000000000000007bffffffffffffffffffffffffffffffffffffffffffffffffffffffff1916827bffffffffffffffffffffffffffffffffffffffffffffffffffffffff1916149050919050565b60008073ffffffffffffffffffffffffffffffffffffffff166002600084815260200190815260200160002060009054906101000a900473ffffffffffffffffffffffffffffffffffffffff1673ffffffffffffffffffffffffffffffffffffffff1614159050919050565b600033905090565b816004600083815260200190815260200160002060006101000a81548173ffffffffffffffffffffffffffffffffffffffff021916908373ffffffffffffffffffffffffffffffffffffffff160217905550808273ffffffffffffffffffffffffffffffffffffffff16610ce5836107b2565b73ffffffffffffffffffffffffffffffffffffffff167f8c5be1e5ebec7d5bd14f71427d1e84f3dd0314c0f7b2291e5b200ac8c7c3b92560405160405180910390a45050565b6000610d3682610bfe565b610d75576040517f08c379a0000000000000000000000000000000000000000000000000000000008152600401610d6c9061258c565b60405180910390fd5b6000610d80836107b2565b90508073ffffffffffffffffffffffffffffffffffffffff168473ffffffffffffffffffffffffffffffffffffffff161480610def57508373ffffffffffffffffffffffffffffffffffffffff16610dd7846104a2565b73ffffffffffffffffffffffffffffffffffffffff16145b80610e005750610dff8185610b00565b5b91505092915050565b8273ffffffffffffffffffffffffffffffffffffffff16610e29826107b2565b73ffffffffffffffffffffffffffffffffffffffff1614610e7f576040517f08c379a0000000000000000000000000000000000000000000000000000000008152600401610e769061261e565b60405180910390fd5b600073ffffffffffffffffffffffffffffffffffffffff168273ffffffffffffffffffffffffffffffffffffffff161415610eef576040517f08c379a0000000000000000000000000000000000000000000000000000000008152600401610ee6906126b0565b60405180910390fd5b610efa838383611438565b610f05600082610c72565b6001600360008573ffffffffffffffffffffffffffffffffffffffff1673ffffffffffffffffffffffffffffffffffffffff1681526020019081526020016000206000828254610f5591906126d0565b925050819055506001600360008473ffffffffffffffffffffffffffffffffffffffff1673ffffffffffffffffffffffffffffffffffffffff1681526020019081526020016000206000828254610fac9190612704565b92505081905550816002600083815260200190815260200160002060006101000a81548173ffffffffffffffffffffffffffffffffffffffff021916908373ffffffffffffffffffffffffffffffffffffffff160217905550808273ffffffffffffffffffffffffffffffffffffffff168473ffffffffffffffffffffffffffffffffffffffff167fddf252ad1be2c89b69c2b068fc378daa952ba7f163c4a11628f55a4df523b3ef60405160405180910390a4505050565b8173ffffffffffffffffffffffffffffffffffffffff168373ffffffffffffffffffffffffffffffffffffffff1614156110d4576040517f08c379a00000000000000000000000000000000000000000000000000000000081526004016110cb906127a6565b60405180910390fd5b80600560008573ffffffffffffffffffffffffffffffffffffffff1673ffffffffffffffffffffffffffffffffffffffff16815260200190815260200160002060008473ffffffffffffffffffffffffffffffffffffffff1673ffffffffffffffffffffffffffffffffffffffff16815260200190815260200160002060006101000a81548160ff0219169083151502179055508173ffffffffffffffffffffffffffffffffffffffff168373ffffffffffffffffffffffffffffffffffffffff167f17307eab39ab6107e8899845ad3d59bd9653f200f220920489ca2b5937696c31836040516111c59190611958565b60405180910390a3505050565b6111dd848484610e09565b6111e98484848461143d565b611228576040517f08c379a000000000000000000000000000000000000000000000000000000000815260040161121f90612838565b60405180910390fd5b50505050565b606060405180602001604052806000815250905090565b6060600082141561128d576040518060400160405280600181526020017f300000000000000000000000000000000000000000000000000000000000000081525090506113a1565b600082905060005b600082146112bf5780806112a8906124d1565b915050600a826112b89190612887565b9150611295565b60008167ffffffffffffffff8111156112db576112da611c79565b5b6040519080825280601f01601f19166020018201604052801561130d5781602001600182028036833780820191505090505b5090505b6000851461139a5760018261132691906126d0565b9150600a8561133591906128b8565b60306113419190612704565b60f81b818381518110611357576113566128e9565b5b60200101907effffffffffffffffffffffffffffffffffffffffffffffffffffffffffffff1916908160001a905350600a856113939190612887565b9450611311565b8093505050505b919050565b6113c08282604051806020016040528060008152506115c5565b5050565b6113cd82610bfe565b61140c576040517f08c379a00000000000000000000000000000000000000000000000000000000081526004016114039061298a565b60405180910390fd5b80600660008481526020019081526020016000209080519060200190611433929190611801565b505050565b505050565b600061145e8473ffffffffffffffffffffffffffffffffffffffff16611620565b156115b8578373ffffffffffffffffffffffffffffffffffffffff1663150b7a02611487610c6a565b8786866040518563ffffffff1660e01b81526004016114a994939291906129ff565b6020604051808303816000875af19250505080156114e557506040513d601f19601f820116820180604052508101906114e29190612a60565b60015b611568573d8060008114611515576040519150601f19603f3d011682016040523d82523d6000602084013e61151a565b606091505b50600081511415611560576040517f08c379a000000000000000000000000000000000000000000000000000000000815260040161155790612838565b60405180910390fd5b805181602001fd5b63150b7a0260e01b7bffffffffffffffffffffffffffffffffffffffffffffffffffffffff1916817bffffffffffffffffffffffffffffffffffffffffffffffffffffffff1916149150506115bd565b600190505b949350505050565b6115cf8383611633565b6115dc600084848461143d565b61161b576040517f08c379a000000000000000000000000000000000000000000000000000000000815260040161161290612838565b60405180910390fd5b505050565b600080823b905060008111915050919050565b600073ffffffffffffffffffffffffffffffffffffffff168273ffffffffffffffffffffffffffffffffffffffff1614156116a3576040517f08c379a000000000000000000000000000000000000000000000000000000000815260040161169a90612ad9565b60405180910390fd5b6116ac81610bfe565b156116ec576040517f08c379a00000000000000000000000000000000000000000000000000000000081526004016116e390612b45565b60405180910390fd5b6116f860008383611438565b6001600360008473ffffffffffffffffffffffffffffffffffffffff1673ffffffffffffffffffffffffffffffffffffffff16815260200190815260200160002060008282546117489190612704565b92505081905550816002600083815260200190815260200160002060006101000a81548173ffffffffffffffffffffffffffffffffffffffff021916908373ffffffffffffffffffffffffffffffffffffffff160217905550808273ffffffffffffffffffffffffffffffffffffffff16600073ffffffffffffffffffffffffffffffffffffffff167fddf252ad1be2c89b69c2b068fc378daa952ba7f163c4a11628f55a4df523b3ef60405160405180910390a45050565b82805461180d90611f80565b90600052602060002090601f01602090048101928261182f5760008555611876565b82601f1061184857805160ff1916838001178555611876565b82800160010185558215611876579182015b8281111561187557825182559160200191906001019061185a565b5b5090506118839190611887565b5090565b5b808211156118a0576000816000905550600101611888565b5090565b6000604051905090565b600080fd5b600080fd5b60007fffffffff0000000000000000000000000000000000000000000000000000000082169050919050565b6118ed816118b8565b81146118f857600080fd5b50565b60008135905061190a816118e4565b92915050565b600060208284031215611926576119256118ae565b5b6000611934848285016118fb565b91505092915050565b60008115159050919050565b6119528161193d565b82525050565b600060208201905061196d6000830184611949565b92915050565b600081519050919050565b600082825260208201905092915050565b60005b838110156119ad578082015181840152602081019050611992565b838111156119bc576000848401525b50505050565b6000601f19601f8301169050919050565b60006119de82611973565b6119e8818561197e565b93506119f881856020860161198f565b611a01816119c2565b840191505092915050565b60006020820190508181036000830152611a2681846119d3565b905092915050565b6000819050919050565b611a4181611a2e565b8114611a4c57600080fd5b50565b600081359050611a5e81611a38565b92915050565b600060208284031215611a7a57611a796118ae565b5b6000611a8884828501611a4f565b91505092915050565b600073ffffffffffffffffffffffffffffffffffffffff82169050919050565b6000611abc82611a91565b9050919050565b611acc81611ab1565b82525050565b6000602082019050611ae76000830184611ac3565b92915050565b611af681611ab1565b8114611b0157600080fd5b50565b600081359050611b1381611aed565b92915050565b60008060408385031215611b3057611b2f6118ae565b5b6000611b3e85828601611b04565b9250506020611b4f85828601611a4f565b9150509250929050565b600080600060608486031215611b7257611b716118ae565b5b6000611b8086828701611b04565b9350506020611b9186828701611b04565b9250506040611ba286828701611a4f565b9150509250925092565b600060208284031215611bc257611bc16118ae565b5b6000611bd084828501611b04565b91505092915050565b611be281611a2e565b82525050565b6000602082019050611bfd6000830184611bd9565b92915050565b611c0c8161193d565b8114611c1757600080fd5b50565b600081359050611c2981611c03565b92915050565b60008060408385031215611c4657611c456118ae565b5b6000611c5485828601611b04565b9250506020611c6585828601611c1a565b9150509250929050565b600080fd5b600080fd5b7f4e487b7100000000000000000000000000000000000000000000000000000000600052604160045260246000fd5b611cb1826119c2565b810181811067ffffffffffffffff82111715611cd057611ccf611c79565b5b80604052505050565b6000611ce36118a4565b9050611cef8282611ca8565b919050565b600067ffffffffffffffff821115611d0f57611d0e611c79565b5b611d18826119c2565b9050602081019050919050565b82818337600083830152505050565b6000611d47611d4284611cf4565b611cd9565b905082815260208101848484011115611d6357611d62611c74565b5b611d6e848285611d25565b509392505050565b600082601f830112611d8b57611d8a611c6f565b5b8135611d9b848260208601611d34565b91505092915050565b60008060008060808587031215611dbe57611dbd6118ae565b5b6000611dcc87828801611b04565b9450506020611ddd87828801611b04565b9350506040611dee87828801611a4f565b925050606085013567ffffffffffffffff811115611e0f57611e0e6118b3565b5b611e1b87828801611d76565b91505092959194509250565b600067ffffffffffffffff821115611e4257611e41611c79565b5b611e4b826119c2565b9050602081019050919050565b6000611e6b611e6684611e27565b611cd9565b905082815260208101848484011115611e8757611e86611c74565b5b611e92848285611d25565b509392505050565b600082601f830112611eaf57611eae611c6f565b5b8135611ebf848260208601611e58565b91505092915050565b600060208284031215611ede57611edd6118ae565b5b600082013567ffffffffffffffff811115611efc57611efb6118b3565b5b611f0884828501611e9a565b91505092915050565b60008060408385031215611f2857611f276118ae565b5b6000611f3685828601611b04565b9250506020611f4785828601611b04565b9150509250929050565b7f4e487b7100000000000000000000000000000000000000000000000000000000600052602260045260246000fd5b60006002820490506001821680611f9857607f821691505b60208210811415611fac57611fab611f51565b5b50919050565b7f4552433732313a20617070726f76656420717565727920666f72206e6f6e657860008201527f697374656e7420746f6b656e0000000000000000000000000000000000000000602082015250565b600061200e602c8361197e565b915061201982611fb2565b604082019050919050565b6000602082019050818103600083015261203d81612001565b9050919050565b7f4552433732313a20617070726f76616c20746f2063757272656e74206f776e6560008201527f7200000000000000000000000000000000000000000000000000000000000000602082015250565b60006120a060218361197e565b91506120ab82612044565b604082019050919050565b600060208201905081810360008301526120cf81612093565b9050919050565b7f4552433732313a20617070726f76652063616c6c6572206973206e6f74206f7760008201527f6e6572206e6f7220617070726f76656420666f7220616c6c0000000000000000602082015250565b600061213260388361197e565b915061213d826120d6565b604082019050919050565b6000602082019050818103600083015261216181612125565b9050919050565b7f4552433732313a207472616e736665722063616c6c6572206973206e6f74206f60008201527f776e6572206e6f7220617070726f766564000000000000000000000000000000602082015250565b60006121c460318361197e565b91506121cf82612168565b604082019050919050565b600060208201905081810360008301526121f3816121b7565b9050919050565b7f4552433732314d657461646174613a2043494420717565727920666f72206e6f60008201527f6e6578697374656e7420746f6b656e0000000000000000000000000000000000602082015250565b6000612256602f8361197e565b9150612261826121fa565b604082019050919050565b6000602082019050818103600083015261228581612249565b9050919050565b7f4552433732313a206f776e657220717565727920666f72206e6f6e657869737460008201527f656e7420746f6b656e0000000000000000000000000000000000000000000000602082015250565b60006122e860298361197e565b91506122f38261228c565b604082019050919050565b60006020820190508181036000830152612317816122db565b9050919050565b7f4552433732313a2062616c616e636520717565727920666f7220746865207a6560008201527f726f206164647265737300000000000000000000000000000000000000000000602082015250565b600061237a602a8361197e565b91506123858261231e565b604082019050919050565b600060208201905081810360008301526123a98161236d565b9050919050565b7f4552433732314d657461646174613a2055524920717565727920666f72206e6f60008201527f6e6578697374656e7420746f6b656e0000000000000000000000000000000000602082015250565b600061240c602f8361197e565b9150612417826123b0565b604082019050919050565b6000602082019050818103600083015261243b816123ff565b9050919050565b600081905092915050565b600061245882611973565b6124628185612442565b935061247281856020860161198f565b80840191505092915050565b600061248a828561244d565b9150612496828461244d565b91508190509392505050565b7f4e487b7100000000000000000000000000000000000000000000000000000000600052601160045260246000fd5b60006124dc82611a2e565b91507fffffffffffffffffffffffffffffffffffffffffffffffffffffffffffffffff82141561250f5761250e6124a2565b5b600182019050919050565b7f4552433732313a206f70657261746f7220717565727920666f72206e6f6e657860008201527f697374656e7420746f6b656e0000000000000000000000000000000000000000602082015250565b6000612576602c8361197e565b91506125818261251a565b604082019050919050565b600060208201905081810360008301526125a581612569565b9050919050565b7f4552433732313a207472616e73666572206f6620746f6b656e2074686174206960008201527f73206e6f74206f776e0000000000000000000000000000000000000000000000602082015250565b600061260860298361197e565b9150612613826125ac565b604082019050919050565b60006020820190508181036000830152612637816125fb565b9050919050565b7f4552433732313a207472616e7366657220746f20746865207a65726f2061646460008201527f7265737300000000000000000000000000000000000000000000000000000000602082015250565b600061269a60248361197e565b91506126a58261263e565b604082019050919050565b600060208201905081810360008301526126c98161268d565b9050919050565b60006126db82611a2e565b91506126e683611a2e565b9250828210156126f9576126f86124a2565b5b828203905092915050565b600061270f82611a2e565b915061271a83611a2e565b9250827fffffffffffffffffffffffffffffffffffffffffffffffffffffffffffffffff0382111561274f5761274e6124a2565b5b828201905092915050565b7f4552433732313a20617070726f766520746f2063616c6c657200000000000000600082015250565b600061279060198361197e565b915061279b8261275a565b602082019050919050565b600060208201905081810360008301526127bf81612783565b9050919050565b7f4552433732313a207472616e7366657220746f206e6f6e20455243373231526560008201527f63656976657220696d706c656d656e7465720000000000000000000000000000602082015250565b600061282260328361197e565b915061282d826127c6565b604082019050919050565b6000602082019050818103600083015261285181612815565b9050919050565b7f4e487b7100000000000000000000000000000000000000000000000000000000600052601260045260246000fd5b600061289282611a2e565b915061289d83611a2e565b9250826128ad576128ac612858565b5b828204905092915050565b60006128c382611a2e565b91506128ce83611a2e565b9250826128de576128dd612858565b5b828206905092915050565b7f4e487b7100000000000000000000000000000000000000000000000000000000600052603260045260246000fd5b7f4552433732314d657461646174613a2043494420736574206f66206e6f6e657860008201527f697374656e7420746f6b656e0000000000000000000000000000000000000000602082015250565b6000612974602c8361197e565b915061297f82612918565b604082019050919050565b600060208201905081810360008301526129a381612967565b9050919050565b600081519050919050565b600082825260208201905092915050565b60006129d1826129aa565b6129db81856129b5565b93506129eb81856020860161198f565b6129f4816119c2565b840191505092915050565b6000608082019050612a146000830187611ac3565b612a216020830186611ac3565b612a2e6040830185611bd9565b8181036060830152612a4081846129c6565b905095945050505050565b600081519050612a5a816118e4565b92915050565b600060208284031215612a7657612a756118ae565b5b6000612a8484828501612a4b565b91505092915050565b7f4552433732313a206d696e7420746f20746865207a65726f2061646472657373600082015250565b6000612ac360208361197e565b9150612ace82612a8d565b602082019050919050565b60006020820190508181036000830152612af281612ab6565b9050919050565b7f4552433732313a20746f6b656e20616c7265616479206d696e74656400000000600082015250565b6000612b2f601c8361197e565b9150612b3a82612af9565b602082019050919050565b60006020820190508181036000830152612b5e81612b22565b905091905056fea264697066735822122049214fb7734ea0b1fb7f0ff3fd800790055f216e4bf02d0c47eaa6ce1225c36764736f6c634300080a0033",
  "immutableReferences": {},
  "source": "pragma solidity >=0.5.0;\nimport \"@openzeppelin/contracts/token/ERC721/ERC721.sol\";\n\n/// SPDX-License-Identifier: UNLICENSED\ncontract RadioNFT is ERC721 {\n    constructor() public ERC721(\"RadNFT\", \"NFT\") {}\n\n    mapping(uint256 => string) private _CIDS;\n    uint256 private _count = 0;\n\n    function CID(uint256 tokenId) public view returns (string memory) {\n        require(\n            _exists(tokenId),\n            \"ERC721Metadata: CID query for nonexistent token\"\n        );\n        string memory _CID = _CIDS[tokenId];\n        return _CID;\n    }\n\n    function _setTokenCID(uint256 tokenId, string memory _CID)\n        internal\n        virtual\n    {\n        require(\n            _exists(tokenId),\n            \"ERC721Metadata: CID set of nonexistent token\"\n        );\n        _CIDS[tokenId] = _CID;\n    }\n\n    function mint(string memory _CID) public {\n        _safeMint(msg.sender, (_count));\n        _setTokenCID((_count), _CID);\n        _count++;\n    }\n}\n",
  "sourcePath": "/home/daniel/git/radio/radio-contract/contracts/RadioNFT.sol",
  "compiler": {
    "name": "solc",
    "version": "0.8.10+commit.fc410830.Emscripten.clang"
  },
  "schemaVersion": "3.4.3",
  "updatedAt": "2022-01-08T18:13:00.222Z",
  "networkType": "ethereum",
  "devdoc": {
    "kind": "dev",
    "methods": {
      "approve(address,uint256)": {
        "details": "See {IERC721-approve}."
      },
      "balanceOf(address)": {
        "details": "See {IERC721-balanceOf}."
      },
      "getApproved(uint256)": {
        "details": "See {IERC721-getApproved}."
      },
      "isApprovedForAll(address,address)": {
        "details": "See {IERC721-isApprovedForAll}."
      },
      "name()": {
        "details": "See {IERC721Metadata-name}."
      },
      "ownerOf(uint256)": {
        "details": "See {IERC721-ownerOf}."
      },
      "safeTransferFrom(address,address,uint256)": {
        "details": "See {IERC721-safeTransferFrom}."
      },
      "safeTransferFrom(address,address,uint256,bytes)": {
        "details": "See {IERC721-safeTransferFrom}."
      },
      "setApprovalForAll(address,bool)": {
        "details": "See {IERC721-setApprovalForAll}."
      },
      "supportsInterface(bytes4)": {
        "details": "See {IERC165-supportsInterface}."
      },
      "symbol()": {
        "details": "See {IERC721Metadata-symbol}."
      },
      "tokenURI(uint256)": {
        "details": "See {IERC721Metadata-tokenURI}."
      },
      "transferFrom(address,address,uint256)": {
        "details": "See {IERC721-transferFrom}."
      }
    },
    "version": 1
  },
  "userdoc": {
    "kind": "user",
    "methods": {},
    "notice": "SPDX-License-Identifier: UNLICENSED",
    "version": 1
  }
}